{
  "_format": "hh-sol-artifact-1",
  "contractName": "Account",
  "sourceName": "contracts/account.sol",
  "abi": [
    {
      "inputs": [
        {
          "internalType": "address",
          "name": "usAddress",
          "type": "address"
        },
        {
          "internalType": "string",
          "name": "usname",
          "type": "string"
        }
      ],
      "stateMutability": "nonpayable",
      "type": "constructor"
    },
    {
      "inputs": [],
      "name": "depositFunds",
      "outputs": [],
      "stateMutability": "payable",
      "type": "function"
    },
    {
      "inputs": [],
      "name": "getAccountDetails",
      "outputs": [
        {
          "internalType": "string",
          "name": "",
          "type": "string"
        },
        {
          "internalType": "address",
          "name": "",
          "type": "address"
        },
        {
          "internalType": "uint256",
          "name": "",
          "type": "uint256"
        },
        {
          "internalType": "address",
          "name": "",
          "type": "address"
        }
      ],
      "stateMutability": "view",
      "type": "function"
    },
    {
      "inputs": [],
      "name": "getAcctBalance",
      "outputs": [
        {
          "internalType": "uint256",
          "name": "",
          "type": "uint256"
        }
      ],
      "stateMutability": "view",
      "type": "function"
    },
    {
      "inputs": [
        {
          "internalType": "address",
          "name": "newAddress",
          "type": "address"
        }
      ],
      "name": "setUserAddress",
      "outputs": [
        {
          "internalType": "bool",
          "name": "",
          "type": "bool"
        }
      ],
      "stateMutability": "nonpayable",
      "type": "function"
    },
    {
      "inputs": [
        {
          "internalType": "uint256",
          "name": "amount",
          "type": "uint256"
        },
        {
          "internalType": "address",
          "name": "to",
          "type": "address"
        }
      ],
      "name": "transferFunds",
      "outputs": [],
      "stateMutability": "payable",
      "type": "function"
    },
    {
      "inputs": [
        {
          "internalType": "uint256",
          "name": "amount",
          "type": "uint256"
        }
      ],
      "name": "withdrawFunds",
      "outputs": [],
      "stateMutability": "payable",
      "type": "function"
    }
  ],
  "bytecode": "0x60806040523480156200001157600080fd5b5060405162000ef138038062000ef18339818101604052810190620000379190620001d2565b80600090805190602001906200004f92919062000099565b5081600160006101000a81548173ffffffffffffffffffffffffffffffffffffffff021916908373ffffffffffffffffffffffffffffffffffffffff1602179055505050620003ea565b828054620000a790620002f5565b90600052602060002090601f016020900481019282620000cb576000855562000117565b82601f10620000e657805160ff191683800117855562000117565b8280016001018555821562000117579182015b8281111562000116578251825591602001919060010190620000f9565b5b5090506200012691906200012a565b5090565b5b80821115620001455760008160009055506001016200012b565b5090565b6000620001606200015a8462000255565b6200022c565b9050828152602081018484840111156200017957600080fd5b62000186848285620002bf565b509392505050565b6000815190506200019f81620003d0565b92915050565b600082601f830112620001b757600080fd5b8151620001c984826020860162000149565b91505092915050565b60008060408385031215620001e657600080fd5b6000620001f6858286016200018e565b925050602083015167ffffffffffffffff8111156200021457600080fd5b6200022285828601620001a5565b9150509250929050565b6000620002386200024b565b90506200024682826200032b565b919050565b6000604051905090565b600067ffffffffffffffff82111562000273576200027262000390565b5b6200027e82620003bf565b9050602081019050919050565b600062000298826200029f565b9050919050565b600073ffffffffffffffffffffffffffffffffffffffff82169050919050565b60005b83811015620002df578082015181840152602081019050620002c2565b83811115620002ef576000848401525b50505050565b600060028204905060018216806200030e57607f821691505b6020821081141562000325576200032462000361565b5b50919050565b6200033682620003bf565b810181811067ffffffffffffffff8211171562000358576200035762000390565b5b80604052505050565b7f4e487b7100000000000000000000000000000000000000000000000000000000600052602260045260246000fd5b7f4e487b7100000000000000000000000000000000000000000000000000000000600052604160045260246000fd5b6000601f19601f8301169050919050565b620003db816200028b565b8114620003e757600080fd5b50565b610af780620003fa6000396000f3fe6080604052600436106100555760003560e01c806308334a261461005a5780630aa5643414610085578063155dd5ee146100c2578063c39869c1146100de578063e2c41dbc1461010c578063f08e362f14610116575b600080fd5b34801561006657600080fd5b5061006f610132565b60405161007c91906108ce565b60405180910390f35b34801561009157600080fd5b506100ac60048036038101906100a791906106aa565b6101ca565b6040516100b99190610807565b60405180910390f35b6100dc60048036038101906100d791906106d3565b610276565b005b3480156100ea57600080fd5b506100f36103bd565b6040516101039493929190610822565b60405180910390f35b610114610515565b005b610130600480360381019061012b91906106fc565b61055a565b005b6000600160009054906101000a900473ffffffffffffffffffffffffffffffffffffffff1673ffffffffffffffffffffffffffffffffffffffff163373ffffffffffffffffffffffffffffffffffffffff16146101c4576040517f08c379a00000000000000000000000000000000000000000000000000000000081526004016101bb9061088e565b60405180910390fd5b47905090565b6000600160009054906101000a900473ffffffffffffffffffffffffffffffffffffffff1673ffffffffffffffffffffffffffffffffffffffff163373ffffffffffffffffffffffffffffffffffffffff16141561026c5781600160006101000a81548173ffffffffffffffffffffffffffffffffffffffff021916908373ffffffffffffffffffffffffffffffffffffffff16021790555060019050610271565b600090505b919050565b600160009054906101000a900473ffffffffffffffffffffffffffffffffffffffff1673ffffffffffffffffffffffffffffffffffffffff163373ffffffffffffffffffffffffffffffffffffffff1614610306576040517f08c379a00000000000000000000000000000000000000000000000000000000081526004016102fd9061088e565b60405180910390fd5b808047101561034a576040517f08c379a0000000000000000000000000000000000000000000000000000000008152600401610341906108ae565b60405180910390fd5b6000600160009054906101000a900473ffffffffffffffffffffffffffffffffffffffff1690508073ffffffffffffffffffffffffffffffffffffffff166108fc849081150290604051600060405180830381858888f193505050501580156103b7573d6000803e3d6000fd5b50505050565b60606000806000600160009054906101000a900473ffffffffffffffffffffffffffffffffffffffff1673ffffffffffffffffffffffffffffffffffffffff163373ffffffffffffffffffffffffffffffffffffffff1614610454576040517f08c379a000000000000000000000000000000000000000000000000000000000815260040161044b9061088e565b60405180910390fd5b6000600160009054906101000a900473ffffffffffffffffffffffffffffffffffffffff16473083805461048790610980565b80601f01602080910402602001604051908101604052809291908181526020018280546104b390610980565b80156105005780601f106104d557610100808354040283529160200191610500565b820191906000526020600020905b8154815290600101906020018083116104e357829003601f168201915b50505050509350935093509350935090919293565b60003411610558576040517f08c379a000000000000000000000000000000000000000000000000000000000815260040161054f9061086e565b60405180910390fd5b565b600160009054906101000a900473ffffffffffffffffffffffffffffffffffffffff1673ffffffffffffffffffffffffffffffffffffffff163373ffffffffffffffffffffffffffffffffffffffff16146105ea576040517f08c379a00000000000000000000000000000000000000000000000000000000081526004016105e19061088e565b60405180910390fd5b818047101561062e576040517f08c379a0000000000000000000000000000000000000000000000000000000008152600401610625906108ae565b60405180910390fd5b60008290508073ffffffffffffffffffffffffffffffffffffffff166108fc859081150290604051600060405180830381858888f19350505050158015610679573d6000803e3d6000fd5b5050505050565b60008135905061068f81610a93565b92915050565b6000813590506106a481610aaa565b92915050565b6000602082840312156106bc57600080fd5b60006106ca84828501610680565b91505092915050565b6000602082840312156106e557600080fd5b60006106f384828501610695565b91505092915050565b6000806040838503121561070f57600080fd5b600061071d85828601610695565b925050602061072e85828601610680565b9150509250929050565b61074181610905565b82525050565b61075081610917565b82525050565b6000610761826108e9565b61076b81856108f4565b935061077b81856020860161094d565b610784816109e1565b840191505092915050565b600061079c600e836108f4565b91506107a7826109f2565b602082019050919050565b60006107bf6035836108f4565b91506107ca82610a1b565b604082019050919050565b60006107e26012836108f4565b91506107ed82610a6a565b602082019050919050565b61080181610943565b82525050565b600060208201905061081c6000830184610747565b92915050565b6000608082019050818103600083015261083c8187610756565b905061084b6020830186610738565b61085860408301856107f8565b6108656060830184610738565b95945050505050565b600060208201905081810360008301526108878161078f565b9050919050565b600060208201905081810360008301526108a7816107b2565b9050919050565b600060208201905081810360008301526108c7816107d5565b9050919050565b60006020820190506108e360008301846107f8565b92915050565b600081519050919050565b600082825260208201905092915050565b600061091082610923565b9050919050565b60008115159050919050565b600073ffffffffffffffffffffffffffffffffffffffff82169050919050565b6000819050919050565b60005b8381101561096b578082015181840152602081019050610950565b8381111561097a576000848401525b50505050565b6000600282049050600182168061099857607f821691505b602082108114156109ac576109ab6109b2565b5b50919050565b7f4e487b7100000000000000000000000000000000000000000000000000000000600052602260045260246000fd5b6000601f19601f8301169050919050565b7f496e76616c69642046756e647321000000000000000000000000000000000000600082015250565b7f536f72727920796f7520617265206e6f7420417574686f726973656420746f2060008201527f6d616b652074686973207472616e73616374696f6e0000000000000000000000602082015250565b7f496e737566696369656e742046756e6473210000000000000000000000000000600082015250565b610a9c81610905565b8114610aa757600080fd5b50565b610ab381610943565b8114610abe57600080fd5b5056fea2646970667358221220e4e1d0923e0af7a81c432fdedbd0ac5cc9166836b1af52857cc88661fe3906a764736f6c63430008040033",
  "linkReferences": {},
  "deployedLinkReferences": {}
}