{
  "_format": "hh-sol-artifact-1",
  "contractName": "Account",
  "sourceName": "contracts/account.sol",
  "abi": [
    {
      "inputs": [
        {
          "internalType": "address",
          "name": "usAddress",
          "type": "address"
        },
        {
          "internalType": "string",
          "name": "usname",
          "type": "string"
        }
      ],
      "stateMutability": "nonpayable",
      "type": "constructor"
    },
    {
      "inputs": [],
      "name": "depositFunds",
      "outputs": [],
      "stateMutability": "payable",
      "type": "function"
    },
    {
      "inputs": [],
      "name": "getAccountDetails",
      "outputs": [
        {
          "internalType": "string",
          "name": "",
          "type": "string"
        },
        {
          "internalType": "address",
          "name": "",
          "type": "address"
        },
        {
          "internalType": "uint256",
          "name": "",
          "type": "uint256"
        },
        {
          "internalType": "address",
          "name": "",
          "type": "address"
        }
      ],
      "stateMutability": "view",
      "type": "function"
    },
    {
      "inputs": [],
      "name": "getAcctBalance",
      "outputs": [
        {
          "internalType": "uint256",
          "name": "",
          "type": "uint256"
        }
      ],
      "stateMutability": "view",
      "type": "function"
    },
    {
      "inputs": [
        {
          "internalType": "address",
          "name": "newAddress",
          "type": "address"
        }
      ],
      "name": "setUserAddress",
      "outputs": [],
      "stateMutability": "nonpayable",
      "type": "function"
    },
    {
      "inputs": [
        {
          "internalType": "uint256",
          "name": "amount",
          "type": "uint256"
        },
        {
          "internalType": "address",
          "name": "to",
          "type": "address"
        }
      ],
      "name": "transferFunds",
      "outputs": [],
      "stateMutability": "payable",
      "type": "function"
    },
    {
      "inputs": [
        {
          "internalType": "uint256",
          "name": "amount",
          "type": "uint256"
        }
      ],
      "name": "withdrawFunds",
      "outputs": [],
      "stateMutability": "payable",
      "type": "function"
    }
  ],
  "bytecode": "0x60806040523480156200001157600080fd5b5060405162000ecf38038062000ecf8339818101604052810190620000379190620001d2565b80600090805190602001906200004f92919062000099565b5081600160006101000a81548173ffffffffffffffffffffffffffffffffffffffff021916908373ffffffffffffffffffffffffffffffffffffffff1602179055505050620003ea565b828054620000a790620002f5565b90600052602060002090601f016020900481019282620000cb576000855562000117565b82601f10620000e657805160ff191683800117855562000117565b8280016001018555821562000117579182015b8281111562000116578251825591602001919060010190620000f9565b5b5090506200012691906200012a565b5090565b5b80821115620001455760008160009055506001016200012b565b5090565b6000620001606200015a8462000255565b6200022c565b9050828152602081018484840111156200017957600080fd5b62000186848285620002bf565b509392505050565b6000815190506200019f81620003d0565b92915050565b600082601f830112620001b757600080fd5b8151620001c984826020860162000149565b91505092915050565b60008060408385031215620001e657600080fd5b6000620001f6858286016200018e565b925050602083015167ffffffffffffffff8111156200021457600080fd5b6200022285828601620001a5565b9150509250929050565b6000620002386200024b565b90506200024682826200032b565b919050565b6000604051905090565b600067ffffffffffffffff82111562000273576200027262000390565b5b6200027e82620003bf565b9050602081019050919050565b600062000298826200029f565b9050919050565b600073ffffffffffffffffffffffffffffffffffffffff82169050919050565b60005b83811015620002df578082015181840152602081019050620002c2565b83811115620002ef576000848401525b50505050565b600060028204905060018216806200030e57607f821691505b6020821081141562000325576200032462000361565b5b50919050565b6200033682620003bf565b810181811067ffffffffffffffff8211171562000358576200035762000390565b5b80604052505050565b7f4e487b7100000000000000000000000000000000000000000000000000000000600052602260045260246000fd5b7f4e487b7100000000000000000000000000000000000000000000000000000000600052604160045260246000fd5b6000601f19601f8301169050919050565b620003db816200028b565b8114620003e757600080fd5b50565b610ad580620003fa6000396000f3fe6080604052600436106100555760003560e01c806308334a261461005a5780630aa5643414610085578063155dd5ee146100ae578063c39869c1146100ca578063e2c41dbc146100f8578063f08e362f14610102575b600080fd5b34801561006657600080fd5b5061006f61011e565b60405161007c91906108b8565b60405180910390f35b34801561009157600080fd5b506100ac60048036038101906100a791906106be565b6101b6565b005b6100c860048036038101906100c391906106e7565b61028a565b005b3480156100d657600080fd5b506100df6103d1565b6040516100ef949392919061080c565b60405180910390f35b610100610529565b005b61011c60048036038101906101179190610710565b61056e565b005b6000600160009054906101000a900473ffffffffffffffffffffffffffffffffffffffff1673ffffffffffffffffffffffffffffffffffffffff163373ffffffffffffffffffffffffffffffffffffffff16146101b0576040517f08c379a00000000000000000000000000000000000000000000000000000000081526004016101a790610878565b60405180910390fd5b47905090565b600160009054906101000a900473ffffffffffffffffffffffffffffffffffffffff1673ffffffffffffffffffffffffffffffffffffffff163373ffffffffffffffffffffffffffffffffffffffff1614610246576040517f08c379a000000000000000000000000000000000000000000000000000000000815260040161023d90610878565b60405180910390fd5b80600160006101000a81548173ffffffffffffffffffffffffffffffffffffffff021916908373ffffffffffffffffffffffffffffffffffffffff16021790555050565b600160009054906101000a900473ffffffffffffffffffffffffffffffffffffffff1673ffffffffffffffffffffffffffffffffffffffff163373ffffffffffffffffffffffffffffffffffffffff161461031a576040517f08c379a000000000000000000000000000000000000000000000000000000000815260040161031190610878565b60405180910390fd5b808047101561035e576040517f08c379a000000000000000000000000000000000000000000000000000000000815260040161035590610898565b60405180910390fd5b6000600160009054906101000a900473ffffffffffffffffffffffffffffffffffffffff1690508073ffffffffffffffffffffffffffffffffffffffff166108fc849081150290604051600060405180830381858888f193505050501580156103cb573d6000803e3d6000fd5b50505050565b60606000806000600160009054906101000a900473ffffffffffffffffffffffffffffffffffffffff1673ffffffffffffffffffffffffffffffffffffffff163373ffffffffffffffffffffffffffffffffffffffff1614610468576040517f08c379a000000000000000000000000000000000000000000000000000000000815260040161045f90610878565b60405180910390fd5b6000600160009054906101000a900473ffffffffffffffffffffffffffffffffffffffff16473083805461049b9061095e565b80601f01602080910402602001604051908101604052809291908181526020018280546104c79061095e565b80156105145780601f106104e957610100808354040283529160200191610514565b820191906000526020600020905b8154815290600101906020018083116104f757829003601f168201915b50505050509350935093509350935090919293565b6000341161056c576040517f08c379a000000000000000000000000000000000000000000000000000000000815260040161056390610858565b60405180910390fd5b565b600160009054906101000a900473ffffffffffffffffffffffffffffffffffffffff1673ffffffffffffffffffffffffffffffffffffffff163373ffffffffffffffffffffffffffffffffffffffff16146105fe576040517f08c379a00000000000000000000000000000000000000000000000000000000081526004016105f590610878565b60405180910390fd5b8180471015610642576040517f08c379a000000000000000000000000000000000000000000000000000000000815260040161063990610898565b60405180910390fd5b60008290508073ffffffffffffffffffffffffffffffffffffffff166108fc859081150290604051600060405180830381858888f1935050505015801561068d573d6000803e3d6000fd5b5050505050565b6000813590506106a381610a71565b92915050565b6000813590506106b881610a88565b92915050565b6000602082840312156106d057600080fd5b60006106de84828501610694565b91505092915050565b6000602082840312156106f957600080fd5b6000610707848285016106a9565b91505092915050565b6000806040838503121561072357600080fd5b6000610731858286016106a9565b925050602061074285828601610694565b9150509250929050565b610755816108ef565b82525050565b6000610766826108d3565b61077081856108de565b935061078081856020860161092b565b610789816109bf565b840191505092915050565b60006107a1600e836108de565b91506107ac826109d0565b602082019050919050565b60006107c46035836108de565b91506107cf826109f9565b604082019050919050565b60006107e76012836108de565b91506107f282610a48565b602082019050919050565b61080681610921565b82525050565b60006080820190508181036000830152610826818761075b565b9050610835602083018661074c565b61084260408301856107fd565b61084f606083018461074c565b95945050505050565b6000602082019050818103600083015261087181610794565b9050919050565b60006020820190508181036000830152610891816107b7565b9050919050565b600060208201905081810360008301526108b1816107da565b9050919050565b60006020820190506108cd60008301846107fd565b92915050565b600081519050919050565b600082825260208201905092915050565b60006108fa82610901565b9050919050565b600073ffffffffffffffffffffffffffffffffffffffff82169050919050565b6000819050919050565b60005b8381101561094957808201518184015260208101905061092e565b83811115610958576000848401525b50505050565b6000600282049050600182168061097657607f821691505b6020821081141561098a57610989610990565b5b50919050565b7f4e487b7100000000000000000000000000000000000000000000000000000000600052602260045260246000fd5b6000601f19601f8301169050919050565b7f496e76616c69642046756e647321000000000000000000000000000000000000600082015250565b7f536f72727920796f7520617265206e6f7420417574686f726973656420746f2060008201527f6d616b652074686973207472616e73616374696f6e0000000000000000000000602082015250565b7f496e737566696369656e742046756e6473210000000000000000000000000000600082015250565b610a7a816108ef565b8114610a8557600080fd5b50565b610a9181610921565b8114610a9c57600080fd5b5056fea2646970667358221220139614f5b7dc4996b4906d8325c026fa7bea32f61b891d99511c62b0d19b96a064736f6c63430008040033",
  "linkReferences": {},
  "deployedLinkReferences": {}
}