{
  "_format": "hh-sol-artifact-1",
  "contractName": "Token",
  "sourceName": "contracts/Token.sol",
  "abi": [
    {
      "inputs": [
        {
          "internalType": "string",
          "name": "name",
          "type": "string"
        },
        {
          "internalType": "string",
          "name": "symbol",
          "type": "string"
        },
        {
          "internalType": "uint256",
          "name": "qtyForEth",
          "type": "uint256"
        },
        {
          "internalType": "uint256",
          "name": "mintQty",
          "type": "uint256"
        }
      ],
      "stateMutability": "nonpayable",
      "type": "constructor"
    },
    {
      "anonymous": false,
      "inputs": [
        {
          "indexed": true,
          "internalType": "address",
          "name": "owner",
          "type": "address"
        },
        {
          "indexed": true,
          "internalType": "address",
          "name": "spender",
          "type": "address"
        },
        {
          "indexed": false,
          "internalType": "uint256",
          "name": "value",
          "type": "uint256"
        }
      ],
      "name": "Approval",
      "type": "event"
    },
    {
      "anonymous": false,
      "inputs": [
        {
          "indexed": true,
          "internalType": "address",
          "name": "from",
          "type": "address"
        },
        {
          "indexed": true,
          "internalType": "address",
          "name": "to",
          "type": "address"
        },
        {
          "indexed": false,
          "internalType": "uint256",
          "name": "value",
          "type": "uint256"
        }
      ],
      "name": "Transfer",
      "type": "event"
    },
    {
      "inputs": [
        {
          "internalType": "address",
          "name": "owner",
          "type": "address"
        },
        {
          "internalType": "address",
          "name": "spender",
          "type": "address"
        }
      ],
      "name": "allowance",
      "outputs": [
        {
          "internalType": "uint256",
          "name": "",
          "type": "uint256"
        }
      ],
      "stateMutability": "view",
      "type": "function"
    },
    {
      "inputs": [
        {
          "internalType": "address",
          "name": "spender",
          "type": "address"
        },
        {
          "internalType": "uint256",
          "name": "amount",
          "type": "uint256"
        }
      ],
      "name": "approve",
      "outputs": [
        {
          "internalType": "bool",
          "name": "",
          "type": "bool"
        }
      ],
      "stateMutability": "nonpayable",
      "type": "function"
    },
    {
      "inputs": [
        {
          "internalType": "address",
          "name": "account",
          "type": "address"
        }
      ],
      "name": "balanceOf",
      "outputs": [
        {
          "internalType": "uint256",
          "name": "",
          "type": "uint256"
        }
      ],
      "stateMutability": "view",
      "type": "function"
    },
    {
      "inputs": [],
      "name": "buyToken",
      "outputs": [],
      "stateMutability": "payable",
      "type": "function"
    },
    {
      "inputs": [],
      "name": "decimals",
      "outputs": [
        {
          "internalType": "uint8",
          "name": "",
          "type": "uint8"
        }
      ],
      "stateMutability": "view",
      "type": "function"
    },
    {
      "inputs": [
        {
          "internalType": "address",
          "name": "spender",
          "type": "address"
        },
        {
          "internalType": "uint256",
          "name": "subtractedValue",
          "type": "uint256"
        }
      ],
      "name": "decreaseAllowance",
      "outputs": [
        {
          "internalType": "bool",
          "name": "",
          "type": "bool"
        }
      ],
      "stateMutability": "nonpayable",
      "type": "function"
    },
    {
      "inputs": [
        {
          "internalType": "address",
          "name": "user",
          "type": "address"
        }
      ],
      "name": "getBalance",
      "outputs": [
        {
          "internalType": "uint256",
          "name": "",
          "type": "uint256"
        }
      ],
      "stateMutability": "view",
      "type": "function"
    },
    {
      "inputs": [],
      "name": "getSummary",
      "outputs": [
        {
          "internalType": "string",
          "name": "",
          "type": "string"
        },
        {
          "internalType": "string",
          "name": "",
          "type": "string"
        },
        {
          "internalType": "uint256",
          "name": "",
          "type": "uint256"
        },
        {
          "internalType": "uint256",
          "name": "",
          "type": "uint256"
        }
      ],
      "stateMutability": "view",
      "type": "function"
    },
    {
      "inputs": [
        {
          "internalType": "address",
          "name": "spender",
          "type": "address"
        },
        {
          "internalType": "uint256",
          "name": "addedValue",
          "type": "uint256"
        }
      ],
      "name": "increaseAllowance",
      "outputs": [
        {
          "internalType": "bool",
          "name": "",
          "type": "bool"
        }
      ],
      "stateMutability": "nonpayable",
      "type": "function"
    },
    {
      "inputs": [
        {
          "internalType": "uint256",
          "name": "tokenQnty",
          "type": "uint256"
        }
      ],
      "name": "mintToken",
      "outputs": [],
      "stateMutability": "nonpayable",
      "type": "function"
    },
    {
      "inputs": [],
      "name": "name",
      "outputs": [
        {
          "internalType": "string",
          "name": "",
          "type": "string"
        }
      ],
      "stateMutability": "view",
      "type": "function"
    },
    {
      "inputs": [
        {
          "internalType": "address",
          "name": "to",
          "type": "address"
        },
        {
          "internalType": "uint256",
          "name": "amt",
          "type": "uint256"
        }
      ],
      "name": "sendUserSomeToken",
      "outputs": [],
      "stateMutability": "payable",
      "type": "function"
    },
    {
      "inputs": [
        {
          "internalType": "uint256",
          "name": "qty",
          "type": "uint256"
        }
      ],
      "name": "setUnitsOneEthCanBuy",
      "outputs": [],
      "stateMutability": "nonpayable",
      "type": "function"
    },
    {
      "inputs": [],
      "name": "symbol",
      "outputs": [
        {
          "internalType": "string",
          "name": "",
          "type": "string"
        }
      ],
      "stateMutability": "view",
      "type": "function"
    },
    {
      "inputs": [],
      "name": "totalSupply",
      "outputs": [
        {
          "internalType": "uint256",
          "name": "",
          "type": "uint256"
        }
      ],
      "stateMutability": "view",
      "type": "function"
    },
    {
      "inputs": [
        {
          "internalType": "address",
          "name": "to",
          "type": "address"
        },
        {
          "internalType": "uint256",
          "name": "amount",
          "type": "uint256"
        }
      ],
      "name": "transfer",
      "outputs": [
        {
          "internalType": "bool",
          "name": "",
          "type": "bool"
        }
      ],
      "stateMutability": "nonpayable",
      "type": "function"
    },
    {
      "inputs": [
        {
          "internalType": "address",
          "name": "from",
          "type": "address"
        },
        {
          "internalType": "address",
          "name": "to",
          "type": "address"
        },
        {
          "internalType": "uint256",
          "name": "amount",
          "type": "uint256"
        }
      ],
      "name": "transferFrom",
      "outputs": [
        {
          "internalType": "bool",
          "name": "",
          "type": "bool"
        }
      ],
      "stateMutability": "nonpayable",
      "type": "function"
    },
    {
      "stateMutability": "payable",
      "type": "receive"
    }
  ],
  "bytecode": "0x60806040523480156200001157600080fd5b5060405162002a9b38038062002a9b83398181016040528101906200003791906200048c565b838381600390805190602001906200005192919062000353565b5080600490805190602001906200006a92919062000353565b50505033600660006101000a81548173ffffffffffffffffffffffffffffffffffffffff021916908373ffffffffffffffffffffffffffffffffffffffff16021790555081600581905550620000c681620000d060201b60201c565b5050505062000a99565b600660009054906101000a900473ffffffffffffffffffffffffffffffffffffffff1673ffffffffffffffffffffffffffffffffffffffff163373ffffffffffffffffffffffffffffffffffffffff161462000163576040517f08c379a00000000000000000000000000000000000000000000000000000000081526004016200015a9062000589565b60405180910390fd5b620001c4600660009054906101000a900473ffffffffffffffffffffffffffffffffffffffff166200019a620001c760201b60201c565b60ff16600a620001ab919062000712565b83620001b891906200084f565b620001d060201b60201c565b50565b60006012905090565b600073ffffffffffffffffffffffffffffffffffffffff168273ffffffffffffffffffffffffffffffffffffffff16141562000243576040517f08c379a00000000000000000000000000000000000000000000000000000000081526004016200023a90620005ab565b60405180910390fd5b62000257600083836200034960201b60201c565b80600260008282546200026b91906200065a565b92505081905550806000808473ffffffffffffffffffffffffffffffffffffffff1673ffffffffffffffffffffffffffffffffffffffff1681526020019081526020016000206000828254620002c291906200065a565b925050819055508173ffffffffffffffffffffffffffffffffffffffff16600073ffffffffffffffffffffffffffffffffffffffff167fddf252ad1be2c89b69c2b068fc378daa952ba7f163c4a11628f55a4df523b3ef83604051620003299190620005cd565b60405180910390a362000345600083836200034e60201b60201c565b5050565b505050565b505050565b8280546200036190620008f0565b90600052602060002090601f016020900481019282620003855760008555620003d1565b82601f10620003a057805160ff1916838001178555620003d1565b82800160010185558215620003d1579182015b82811115620003d0578251825591602001919060010190620003b3565b5b509050620003e09190620003e4565b5090565b5b80821115620003ff576000816000905550600101620003e5565b5090565b60006200041a620004148462000613565b620005ea565b9050828152602081018484840111156200043357600080fd5b62000440848285620008ba565b509392505050565b600082601f8301126200045a57600080fd5b81516200046c84826020860162000403565b91505092915050565b600081519050620004868162000a7f565b92915050565b60008060008060808587031215620004a357600080fd5b600085015167ffffffffffffffff811115620004be57600080fd5b620004cc8782880162000448565b945050602085015167ffffffffffffffff811115620004ea57600080fd5b620004f88782880162000448565b93505060406200050b8782880162000475565b92505060606200051e8782880162000475565b91505092959194509250565b60006200053960368362000649565b9150620005468262000a07565b604082019050919050565b600062000560601f8362000649565b91506200056d8262000a56565b602082019050919050565b6200058381620008b0565b82525050565b60006020820190508181036000830152620005a4816200052a565b9050919050565b60006020820190508181036000830152620005c68162000551565b9050919050565b6000602082019050620005e4600083018462000578565b92915050565b6000620005f662000609565b905062000604828262000926565b919050565b6000604051905090565b600067ffffffffffffffff821115620006315762000630620009ba565b5b6200063c82620009e9565b9050602081019050919050565b600082825260208201905092915050565b60006200066782620008b0565b91506200067483620008b0565b9250827fffffffffffffffffffffffffffffffffffffffffffffffffffffffffffffffff03821115620006ac57620006ab6200095c565b5b828201905092915050565b6000808291508390505b60018511156200070957808604811115620006e157620006e06200095c565b5b6001851615620006f15780820291505b80810290506200070185620009fa565b9450620006c1565b94509492505050565b60006200071f82620008b0565b91506200072c83620008b0565b92506200075b7fffffffffffffffffffffffffffffffffffffffffffffffffffffffffffffffff848462000763565b905092915050565b60008262000775576001905062000848565b8162000785576000905062000848565b81600181146200079e5760028114620007a957620007df565b600191505062000848565b60ff841115620007be57620007bd6200095c565b5b8360020a915084821115620007d857620007d76200095c565b5b5062000848565b5060208310610133831016604e8410600b8410161715620008195782820a9050838111156200081357620008126200095c565b5b62000848565b620008288484846001620006b7565b925090508184048111156200084257620008416200095c565b5b81810290505b9392505050565b60006200085c82620008b0565b91506200086983620008b0565b9250817fffffffffffffffffffffffffffffffffffffffffffffffffffffffffffffffff0483118215151615620008a557620008a46200095c565b5b828202905092915050565b6000819050919050565b60005b83811015620008da578082015181840152602081019050620008bd565b83811115620008ea576000848401525b50505050565b600060028204905060018216806200090957607f821691505b6020821081141562000920576200091f6200098b565b5b50919050565b6200093182620009e9565b810181811067ffffffffffffffff82111715620009535762000952620009ba565b5b80604052505050565b7f4e487b7100000000000000000000000000000000000000000000000000000000600052601160045260246000fd5b7f4e487b7100000000000000000000000000000000000000000000000000000000600052602260045260246000fd5b7f4e487b7100000000000000000000000000000000000000000000000000000000600052604160045260246000fd5b6000601f19601f8301169050919050565b60008160011c9050919050565b7f536f72727920796f7520617265206e6f7420617574686f726973656420746f2060008201527f706572666f726d2074686973206f7065726174696f6e00000000000000000000602082015250565b7f45524332303a206d696e7420746f20746865207a65726f206164647265737300600082015250565b62000a8a81620008b0565b811462000a9657600080fd5b50565b611ff28062000aa96000396000f3fe6080604052600436106101025760003560e01c806370a0823111610095578063a9059cbb11610064578063a9059cbb146104dc578063c634d03214610519578063cc8bd06014610542578063dd62ed3e1461056b578063f8b2cb4f146105a8576102a6565b806370a082311461042d57806395d89b411461046a578063a457c2d714610495578063a4821719146104d2576102a6565b8063313ce567116100d1578063313ce5671461037b57806339509351146103a65780633da01de0146103e35780634051ddac146103ff576102a6565b806306fdde03146102ab578063095ea7b3146102d657806318160ddd1461031357806323b872dd1461033e576102a6565b366102a6576000600554346101179190611b5a565b905080610145600660009054906101000a900473ffffffffffffffffffffffffffffffffffffffff166105e5565b1015610186576040517f08c379a000000000000000000000000000000000000000000000000000000000815260040161017d906118e1565b60405180910390fd5b6101b3600660009054906101000a900473ffffffffffffffffffffffffffffffffffffffff16338361062d565b3373ffffffffffffffffffffffffffffffffffffffff16600660009054906101000a900473ffffffffffffffffffffffffffffffffffffffff1673ffffffffffffffffffffffffffffffffffffffff167fddf252ad1be2c89b69c2b068fc378daa952ba7f163c4a11628f55a4df523b3ef836040516102329190611941565b60405180910390a3600660009054906101000a900473ffffffffffffffffffffffffffffffffffffffff1673ffffffffffffffffffffffffffffffffffffffff166108fc349081150290604051600060405180830381858888f193505050501580156102a2573d6000803e3d6000fd5b5050005b600080fd5b3480156102b757600080fd5b506102c06108ae565b6040516102cd919061178c565b60405180910390f35b3480156102e257600080fd5b506102fd60048036038101906102f89190611548565b610940565b60405161030a9190611771565b60405180910390f35b34801561031f57600080fd5b50610328610963565b6040516103359190611941565b60405180910390f35b34801561034a57600080fd5b50610365600480360381019061036091906114f9565b61096d565b6040516103729190611771565b60405180910390f35b34801561038757600080fd5b5061039061099c565b60405161039d919061195c565b60405180910390f35b3480156103b257600080fd5b506103cd60048036038101906103c89190611548565b6109a5565b6040516103da9190611771565b60405180910390f35b6103fd60048036038101906103f89190611548565b610a4f565b005b34801561040b57600080fd5b50610414610b21565b60405161042494939291906117ae565b60405180910390f35b34801561043957600080fd5b50610454600480360381019061044f9190611494565b6105e5565b6040516104619190611941565b60405180910390f35b34801561047657600080fd5b5061047f610b50565b60405161048c919061178c565b60405180910390f35b3480156104a157600080fd5b506104bc60048036038101906104b79190611548565b610be2565b6040516104c99190611771565b60405180910390f35b6104da610ccc565b005b3480156104e857600080fd5b5061050360048036038101906104fe9190611548565b610e6b565b6040516105109190611771565b60405180910390f35b34801561052557600080fd5b50610540600480360381019061053b9190611584565b610e8e565b005b34801561054e57600080fd5b5061056960048036038101906105649190611584565b610f6e565b005b34801561057757600080fd5b50610592600480360381019061058d91906114bd565b611008565b60405161059f9190611941565b60405180910390f35b3480156105b457600080fd5b506105cf60048036038101906105ca9190611494565b61108f565b6040516105dc9190611941565b60405180910390f35b60008060008373ffffffffffffffffffffffffffffffffffffffff1673ffffffffffffffffffffffffffffffffffffffff168152602001908152602001600020549050919050565b600073ffffffffffffffffffffffffffffffffffffffff168373ffffffffffffffffffffffffffffffffffffffff16141561069d576040517f08c379a0000000000000000000000000000000000000000000000000000000008152600401610694906118a1565b60405180910390fd5b600073ffffffffffffffffffffffffffffffffffffffff168273ffffffffffffffffffffffffffffffffffffffff16141561070d576040517f08c379a000000000000000000000000000000000000000000000000000000000815260040161070490611801565b60405180910390fd5b6107188383836110a1565b60008060008573ffffffffffffffffffffffffffffffffffffffff1673ffffffffffffffffffffffffffffffffffffffff1681526020019081526020016000205490508181101561079e576040517f08c379a000000000000000000000000000000000000000000000000000000000815260040161079590611861565b60405180910390fd5b8181036000808673ffffffffffffffffffffffffffffffffffffffff1673ffffffffffffffffffffffffffffffffffffffff16815260200190815260200160002081905550816000808573ffffffffffffffffffffffffffffffffffffffff1673ffffffffffffffffffffffffffffffffffffffff16815260200190815260200160002060008282546108319190611993565b925050819055508273ffffffffffffffffffffffffffffffffffffffff168473ffffffffffffffffffffffffffffffffffffffff167fddf252ad1be2c89b69c2b068fc378daa952ba7f163c4a11628f55a4df523b3ef846040516108959190611941565b60405180910390a36108a88484846110a6565b50505050565b6060600380546108bd90611c3c565b80601f01602080910402602001604051908101604052809291908181526020018280546108e990611c3c565b80156109365780601f1061090b57610100808354040283529160200191610936565b820191906000526020600020905b81548152906001019060200180831161091957829003601f168201915b5050505050905090565b60008061094b6110ab565b90506109588185856110b3565b600191505092915050565b6000600254905090565b6000806109786110ab565b905061098585828561127e565b61099085858561062d565b60019150509392505050565b60006012905090565b6000806109b06110ab565b9050610a44818585600160008673ffffffffffffffffffffffffffffffffffffffff1673ffffffffffffffffffffffffffffffffffffffff16815260200190815260200160002060008973ffffffffffffffffffffffffffffffffffffffff1673ffffffffffffffffffffffffffffffffffffffff16815260200190815260200160002054610a3f9190611993565b6110b3565b600191505092915050565b600060055482610a5f9190611b5a565b905080610a6b336105e5565b1015610aac576040517f08c379a0000000000000000000000000000000000000000000000000000000008152600401610aa3906118e1565b60405180910390fd5b610ab733848361062d565b8273ffffffffffffffffffffffffffffffffffffffff163373ffffffffffffffffffffffffffffffffffffffff167fddf252ad1be2c89b69c2b068fc378daa952ba7f163c4a11628f55a4df523b3ef83604051610b149190611941565b60405180910390a3505050565b606080600080610b2f6108ae565b610b37610b50565b610b3f610963565b600554935093509350935090919293565b606060048054610b5f90611c3c565b80601f0160208091040260200160405190810160405280929190818152602001828054610b8b90611c3c565b8015610bd85780601f10610bad57610100808354040283529160200191610bd8565b820191906000526020600020905b815481529060010190602001808311610bbb57829003601f168201915b5050505050905090565b600080610bed6110ab565b90506000600160008373ffffffffffffffffffffffffffffffffffffffff1673ffffffffffffffffffffffffffffffffffffffff16815260200190815260200160002060008673ffffffffffffffffffffffffffffffffffffffff1673ffffffffffffffffffffffffffffffffffffffff16815260200190815260200160002054905083811015610cb3576040517f08c379a0000000000000000000000000000000000000000000000000000000008152600401610caa90611901565b60405180910390fd5b610cc082868684036110b3565b60019250505092915050565b600060055434610cdc9190611b5a565b905080610d0a600660009054906101000a900473ffffffffffffffffffffffffffffffffffffffff166105e5565b1015610d4b576040517f08c379a0000000000000000000000000000000000000000000000000000000008152600401610d42906118e1565b60405180910390fd5b610d78600660009054906101000a900473ffffffffffffffffffffffffffffffffffffffff16338361062d565b3373ffffffffffffffffffffffffffffffffffffffff16600660009054906101000a900473ffffffffffffffffffffffffffffffffffffffff1673ffffffffffffffffffffffffffffffffffffffff167fddf252ad1be2c89b69c2b068fc378daa952ba7f163c4a11628f55a4df523b3ef83604051610df79190611941565b60405180910390a3600660009054906101000a900473ffffffffffffffffffffffffffffffffffffffff1673ffffffffffffffffffffffffffffffffffffffff166108fc349081150290604051600060405180830381858888f19350505050158015610e67573d6000803e3d6000fd5b5050565b600080610e766110ab565b9050610e8381858561062d565b600191505092915050565b600660009054906101000a900473ffffffffffffffffffffffffffffffffffffffff1673ffffffffffffffffffffffffffffffffffffffff163373ffffffffffffffffffffffffffffffffffffffff1614610f1e576040517f08c379a0000000000000000000000000000000000000000000000000000000008152600401610f1590611881565b60405180910390fd5b610f6b600660009054906101000a900473ffffffffffffffffffffffffffffffffffffffff16610f4c61099c565b60ff16600a610f5b9190611a3c565b83610f669190611b5a565b61130a565b50565b600660009054906101000a900473ffffffffffffffffffffffffffffffffffffffff1673ffffffffffffffffffffffffffffffffffffffff163373ffffffffffffffffffffffffffffffffffffffff1614610ffe576040517f08c379a0000000000000000000000000000000000000000000000000000000008152600401610ff590611881565b60405180910390fd5b8060058190555050565b6000600160008473ffffffffffffffffffffffffffffffffffffffff1673ffffffffffffffffffffffffffffffffffffffff16815260200190815260200160002060008373ffffffffffffffffffffffffffffffffffffffff1673ffffffffffffffffffffffffffffffffffffffff16815260200190815260200160002054905092915050565b600061109a826105e5565b9050919050565b505050565b505050565b600033905090565b600073ffffffffffffffffffffffffffffffffffffffff168373ffffffffffffffffffffffffffffffffffffffff161415611123576040517f08c379a000000000000000000000000000000000000000000000000000000000815260040161111a906118c1565b60405180910390fd5b600073ffffffffffffffffffffffffffffffffffffffff168273ffffffffffffffffffffffffffffffffffffffff161415611193576040517f08c379a000000000000000000000000000000000000000000000000000000000815260040161118a90611821565b60405180910390fd5b80600160008573ffffffffffffffffffffffffffffffffffffffff1673ffffffffffffffffffffffffffffffffffffffff16815260200190815260200160002060008473ffffffffffffffffffffffffffffffffffffffff1673ffffffffffffffffffffffffffffffffffffffff168152602001908152602001600020819055508173ffffffffffffffffffffffffffffffffffffffff168373ffffffffffffffffffffffffffffffffffffffff167f8c5be1e5ebec7d5bd14f71427d1e84f3dd0314c0f7b2291e5b200ac8c7c3b925836040516112719190611941565b60405180910390a3505050565b600061128a8484611008565b90507fffffffffffffffffffffffffffffffffffffffffffffffffffffffffffffffff811461130457818110156112f6576040517f08c379a00000000000000000000000000000000000000000000000000000000081526004016112ed90611841565b60405180910390fd5b61130384848484036110b3565b5b50505050565b600073ffffffffffffffffffffffffffffffffffffffff168273ffffffffffffffffffffffffffffffffffffffff16141561137a576040517f08c379a000000000000000000000000000000000000000000000000000000000815260040161137190611921565b60405180910390fd5b611386600083836110a1565b80600260008282546113989190611993565b92505081905550806000808473ffffffffffffffffffffffffffffffffffffffff1673ffffffffffffffffffffffffffffffffffffffff16815260200190815260200160002060008282546113ed9190611993565b925050819055508173ffffffffffffffffffffffffffffffffffffffff16600073ffffffffffffffffffffffffffffffffffffffff167fddf252ad1be2c89b69c2b068fc378daa952ba7f163c4a11628f55a4df523b3ef836040516114529190611941565b60405180910390a3611466600083836110a6565b5050565b60008135905061147981611f8e565b92915050565b60008135905061148e81611fa5565b92915050565b6000602082840312156114a657600080fd5b60006114b48482850161146a565b91505092915050565b600080604083850312156114d057600080fd5b60006114de8582860161146a565b92505060206114ef8582860161146a565b9150509250929050565b60008060006060848603121561150e57600080fd5b600061151c8682870161146a565b935050602061152d8682870161146a565b925050604061153e8682870161147f565b9150509250925092565b6000806040838503121561155b57600080fd5b60006115698582860161146a565b925050602061157a8582860161147f565b9150509250929050565b60006020828403121561159657600080fd5b60006115a48482850161147f565b91505092915050565b6115b681611bc6565b82525050565b60006115c782611977565b6115d18185611982565b93506115e1818560208601611c09565b6115ea81611ccc565b840191505092915050565b6000611602602383611982565b915061160d82611cea565b604082019050919050565b6000611625602283611982565b915061163082611d39565b604082019050919050565b6000611648601d83611982565b915061165382611d88565b602082019050919050565b600061166b602683611982565b915061167682611db1565b604082019050919050565b600061168e603683611982565b915061169982611e00565b604082019050919050565b60006116b1602583611982565b91506116bc82611e4f565b604082019050919050565b60006116d4602483611982565b91506116df82611e9e565b604082019050919050565b60006116f7601183611982565b915061170282611eed565b602082019050919050565b600061171a602583611982565b915061172582611f16565b604082019050919050565b600061173d601f83611982565b915061174882611f65565b602082019050919050565b61175c81611bf2565b82525050565b61176b81611bfc565b82525050565b600060208201905061178660008301846115ad565b92915050565b600060208201905081810360008301526117a681846115bc565b905092915050565b600060808201905081810360008301526117c881876115bc565b905081810360208301526117dc81866115bc565b90506117eb6040830185611753565b6117f86060830184611753565b95945050505050565b6000602082019050818103600083015261181a816115f5565b9050919050565b6000602082019050818103600083015261183a81611618565b9050919050565b6000602082019050818103600083015261185a8161163b565b9050919050565b6000602082019050818103600083015261187a8161165e565b9050919050565b6000602082019050818103600083015261189a81611681565b9050919050565b600060208201905081810360008301526118ba816116a4565b9050919050565b600060208201905081810360008301526118da816116c7565b9050919050565b600060208201905081810360008301526118fa816116ea565b9050919050565b6000602082019050818103600083015261191a8161170d565b9050919050565b6000602082019050818103600083015261193a81611730565b9050919050565b60006020820190506119566000830184611753565b92915050565b60006020820190506119716000830184611762565b92915050565b600081519050919050565b600082825260208201905092915050565b600061199e82611bf2565b91506119a983611bf2565b9250827fffffffffffffffffffffffffffffffffffffffffffffffffffffffffffffffff038211156119de576119dd611c6e565b5b828201905092915050565b6000808291508390505b6001851115611a3357808604811115611a0f57611a0e611c6e565b5b6001851615611a1e5780820291505b8081029050611a2c85611cdd565b94506119f3565b94509492505050565b6000611a4782611bf2565b9150611a5283611bf2565b9250611a7f7fffffffffffffffffffffffffffffffffffffffffffffffffffffffffffffffff8484611a87565b905092915050565b600082611a975760019050611b53565b81611aa55760009050611b53565b8160018114611abb5760028114611ac557611af4565b6001915050611b53565b60ff841115611ad757611ad6611c6e565b5b8360020a915084821115611aee57611aed611c6e565b5b50611b53565b5060208310610133831016604e8410600b8410161715611b295782820a905083811115611b2457611b23611c6e565b5b611b53565b611b3684848460016119e9565b92509050818404811115611b4d57611b4c611c6e565b5b81810290505b9392505050565b6000611b6582611bf2565b9150611b7083611bf2565b9250817fffffffffffffffffffffffffffffffffffffffffffffffffffffffffffffffff0483118215151615611ba957611ba8611c6e565b5b828202905092915050565b6000611bbf82611bd2565b9050919050565b60008115159050919050565b600073ffffffffffffffffffffffffffffffffffffffff82169050919050565b6000819050919050565b600060ff82169050919050565b60005b83811015611c27578082015181840152602081019050611c0c565b83811115611c36576000848401525b50505050565b60006002820490506001821680611c5457607f821691505b60208210811415611c6857611c67611c9d565b5b50919050565b7f4e487b7100000000000000000000000000000000000000000000000000000000600052601160045260246000fd5b7f4e487b7100000000000000000000000000000000000000000000000000000000600052602260045260246000fd5b6000601f19601f8301169050919050565b60008160011c9050919050565b7f45524332303a207472616e7366657220746f20746865207a65726f206164647260008201527f6573730000000000000000000000000000000000000000000000000000000000602082015250565b7f45524332303a20617070726f766520746f20746865207a65726f20616464726560008201527f7373000000000000000000000000000000000000000000000000000000000000602082015250565b7f45524332303a20696e73756666696369656e7420616c6c6f77616e6365000000600082015250565b7f45524332303a207472616e7366657220616d6f756e742065786365656473206260008201527f616c616e63650000000000000000000000000000000000000000000000000000602082015250565b7f536f72727920796f7520617265206e6f7420617574686f726973656420746f2060008201527f706572666f726d2074686973206f7065726174696f6e00000000000000000000602082015250565b7f45524332303a207472616e736665722066726f6d20746865207a65726f20616460008201527f6472657373000000000000000000000000000000000000000000000000000000602082015250565b7f45524332303a20617070726f76652066726f6d20746865207a65726f2061646460008201527f7265737300000000000000000000000000000000000000000000000000000000602082015250565b7f4e6f7420656e6f75676820746f6b656e73000000000000000000000000000000600082015250565b7f45524332303a2064656372656173656420616c6c6f77616e63652062656c6f7760008201527f207a65726f000000000000000000000000000000000000000000000000000000602082015250565b7f45524332303a206d696e7420746f20746865207a65726f206164647265737300600082015250565b611f9781611bb4565b8114611fa257600080fd5b50565b611fae81611bf2565b8114611fb957600080fd5b5056fea2646970667358221220025c54c2dc134899e534925b3de1c87c3ed1ab9ab7a8cc791451429b145cb8f964736f6c63430008040033",
  "linkReferences": {},
  "deployedLinkReferences": {}
}