{
  "_format": "hh-sol-artifact-1",
  "contractName": "Bank",
  "sourceName": "contracts/bank.sol",
  "abi": [
    {
      "inputs": [],
      "stateMutability": "nonpayable",
      "type": "constructor"
    },
    {
      "inputs": [
        {
          "internalType": "address",
          "name": "user_address",
          "type": "address"
        }
      ],
      "name": "createAccount",
      "outputs": [],
      "stateMutability": "nonpayable",
      "type": "function"
    },
    {
      "inputs": [
        {
          "internalType": "string",
          "name": "usname",
          "type": "string"
        }
      ],
      "name": "createAccountRequest",
      "outputs": [],
      "stateMutability": "nonpayable",
      "type": "function"
    },
    {
      "inputs": [
        {
          "internalType": "uint256",
          "name": "",
          "type": "uint256"
        }
      ],
      "name": "customers",
      "outputs": [
        {
          "internalType": "string",
          "name": "username",
          "type": "string"
        },
        {
          "internalType": "address",
          "name": "userAddress",
          "type": "address"
        },
        {
          "internalType": "bool",
          "name": "created",
          "type": "bool"
        },
        {
          "internalType": "address",
          "name": "acctAddress",
          "type": "address"
        }
      ],
      "stateMutability": "view",
      "type": "function"
    },
    {
      "inputs": [],
      "name": "getBankDetails",
      "outputs": [
        {
          "internalType": "address",
          "name": "",
          "type": "address"
        },
        {
          "internalType": "address",
          "name": "",
          "type": "address"
        },
        {
          "internalType": "uint256",
          "name": "",
          "type": "uint256"
        }
      ],
      "stateMutability": "view",
      "type": "function"
    },
    {
      "inputs": [],
      "name": "getCustomers",
      "outputs": [
        {
          "internalType": "uint256",
          "name": "",
          "type": "uint256"
        }
      ],
      "stateMutability": "view",
      "type": "function"
    },
    {
      "inputs": [
        {
          "internalType": "address",
          "name": "",
          "type": "address"
        }
      ],
      "name": "pendingCustomers",
      "outputs": [
        {
          "internalType": "uint256",
          "name": "",
          "type": "uint256"
        }
      ],
      "stateMutability": "view",
      "type": "function"
    }
  ],
  "bytecode": "0x60806040526000600455600160055534801561001a57600080fd5b50336000806101000a81548173ffffffffffffffffffffffffffffffffffffffff021916908373ffffffffffffffffffffffffffffffffffffffff16021790555030600160006101000a81548173ffffffffffffffffffffffffffffffffffffffff021916908373ffffffffffffffffffffffffffffffffffffffff160217905550611faf806100ab6000396000f3fe60806040523480156200001157600080fd5b50600436106200006a5760003560e01c8063503a37e0146200006f578063593bb70814620000935780637d0e582514620000c95780639859387b14620000e9578063c0abda2a1462000109578063f1ba71271462000142575b600080fd5b6200007962000164565b6040516200008a9392919062000bca565b60405180910390f35b620000b16004803603810190620000ab9190620009b8565b6200024d565b604051620000c0919062000cf5565b60405180910390f35b620000e76004803603810190620000e19190620009e4565b62000265565b005b620001076004803603810190620001019190620009b8565b620003c5565b005b62000127600480360381019062000121919062000a29565b62000608565b60405162000139949392919062000c3b565b60405180910390f35b6200014c62000715565b6040516200015b919062000cf5565b60405180910390f35b60008060008060009054906101000a900473ffffffffffffffffffffffffffffffffffffffff1673ffffffffffffffffffffffffffffffffffffffff163373ffffffffffffffffffffffffffffffffffffffff1614620001fb576040517f08c379a0000000000000000000000000000000000000000000000000000000008152600401620001f29062000c8f565b60405180910390fd5b600160009054906101000a900473ffffffffffffffffffffffffffffffffffffffff1660008054906101000a900473ffffffffffffffffffffffffffffffffffffffff16600454925092509250909192565b60036020528060005260406000206000915090505481565b6200027033620007b1565b15620002b3576040517f08c379a0000000000000000000000000000000000000000000000000000000008152600401620002aa9062000cd3565b60405180910390fd5b6000600260006005548152602001908152602001600020905081816000019080519060200190620002e69291906200085a565b50338160010160006101000a81548173ffffffffffffffffffffffffffffffffffffffff021916908373ffffffffffffffffffffffffffffffffffffffff16021790555060008160010160146101000a81548160ff021916908315150217905550600554600360003373ffffffffffffffffffffffffffffffffffffffff1673ffffffffffffffffffffffffffffffffffffffff1681526020019081526020016000208190555060056000815480929190620003a29062000e9d565b919050555060046000815480929190620003bc9062000e9d565b91905055505050565b60008054906101000a900473ffffffffffffffffffffffffffffffffffffffff1673ffffffffffffffffffffffffffffffffffffffff163373ffffffffffffffffffffffffffffffffffffffff161462000456576040517f08c379a00000000000000000000000000000000000000000000000000000000081526004016200044d9062000c8f565b60405180910390fd5b6000600360008373ffffffffffffffffffffffffffffffffffffffff1673ffffffffffffffffffffffffffffffffffffffff16815260200190815260200160002054905060008111620004e0576040517f08c379a0000000000000000000000000000000000000000000000000000000008152600401620004d79062000cb1565b60405180910390fd5b600060026000838152602001908152602001600020905060008160010160009054906101000a900473ffffffffffffffffffffffffffffffffffffffff16826000016040516200053090620008eb565b6200053d92919062000c07565b604051809103906000f0801580156200055a573d6000803e3d6000fd5b50905060018260010160146101000a81548160ff021916908315150217905550808260020160006101000a81548173ffffffffffffffffffffffffffffffffffffffff021916908373ffffffffffffffffffffffffffffffffffffffff1602179055506000600360008673ffffffffffffffffffffffffffffffffffffffff1673ffffffffffffffffffffffffffffffffffffffff1681526020019081526020016000208190555050505050565b60026020528060005260406000206000915090508060000180546200062d9062000e31565b80601f01602080910402602001604051908101604052809291908181526020018280546200065b9062000e31565b8015620006ac5780601f106200068057610100808354040283529160200191620006ac565b820191906000526020600020905b8154815290600101906020018083116200068e57829003601f168201915b5050505050908060010160009054906101000a900473ffffffffffffffffffffffffffffffffffffffff16908060010160149054906101000a900460ff16908060020160009054906101000a900473ffffffffffffffffffffffffffffffffffffffff16905084565b60008060009054906101000a900473ffffffffffffffffffffffffffffffffffffffff1673ffffffffffffffffffffffffffffffffffffffff163373ffffffffffffffffffffffffffffffffffffffff1614620007a9576040517f08c379a0000000000000000000000000000000000000000000000000000000008152600401620007a09062000c8f565b60405180910390fd5b600454905090565b600080600190505b60045481116200084f578273ffffffffffffffffffffffffffffffffffffffff166002600083815260200190815260200160002060010160009054906101000a900473ffffffffffffffffffffffffffffffffffffffff1673ffffffffffffffffffffffffffffffffffffffff1614156200083957600191505062000855565b8080620008469062000e9d565b915050620007b9565b50600090505b919050565b828054620008689062000e31565b90600052602060002090601f0160209004810192826200088c5760008555620008d8565b82601f10620008a757805160ff1916838001178555620008d8565b82800160010185558215620008d8579182015b82811115620008d7578251825591602001919060010190620008ba565b5b509050620008e79190620008f9565b5090565b610ecf80620010ab83390190565b5b8082111562000914576000816000905550600101620008fa565b5090565b60006200092f620009298462000d3b565b62000d12565b9050828152602081018484840111156200094857600080fd5b6200095584828562000dec565b509392505050565b6000813590506200096e8162001076565b92915050565b600082601f8301126200098657600080fd5b81356200099884826020860162000918565b91505092915050565b600081359050620009b28162001090565b92915050565b600060208284031215620009cb57600080fd5b6000620009db848285016200095d565b91505092915050565b600060208284031215620009f757600080fd5b600082013567ffffffffffffffff81111562000a1257600080fd5b62000a208482850162000974565b91505092915050565b60006020828403121562000a3c57600080fd5b600062000a4c84828501620009a1565b91505092915050565b62000a608162000da2565b82525050565b62000a718162000db6565b82525050565b600062000a848262000d86565b62000a90818562000d91565b935062000aa281856020860162000dfb565b62000aad8162000f78565b840191505092915050565b6000815462000ac78162000e31565b62000ad3818662000d91565b9450600182166000811462000af1576001811462000b045762000b3b565b60ff198316865260208601935062000b3b565b62000b0f8562000d71565b60005b8381101562000b335781548189015260018201915060208101905062000b12565b808801955050505b50505092915050565b600062000b5360358362000d91565b915062000b608262000f89565b604082019050919050565b600062000b7a60368362000d91565b915062000b878262000fd8565b604082019050919050565b600062000ba160328362000d91565b915062000bae8262001027565b604082019050919050565b62000bc48162000de2565b82525050565b600060608201905062000be1600083018662000a55565b62000bf0602083018562000a55565b62000bff604083018462000bb9565b949350505050565b600060408201905062000c1e600083018562000a55565b818103602083015262000c32818462000ab8565b90509392505050565b6000608082019050818103600083015262000c57818762000a77565b905062000c68602083018662000a55565b62000c77604083018562000a66565b62000c86606083018462000a55565b95945050505050565b6000602082019050818103600083015262000caa8162000b44565b9050919050565b6000602082019050818103600083015262000ccc8162000b6b565b9050919050565b6000602082019050818103600083015262000cee8162000b92565b9050919050565b600060208201905062000d0c600083018462000bb9565b92915050565b600062000d1e62000d31565b905062000d2c828262000e67565b919050565b6000604051905090565b600067ffffffffffffffff82111562000d595762000d5862000f49565b5b62000d648262000f78565b9050602081019050919050565b60008190508160005260206000209050919050565b600081519050919050565b600082825260208201905092915050565b600062000daf8262000dc2565b9050919050565b60008115159050919050565b600073ffffffffffffffffffffffffffffffffffffffff82169050919050565b6000819050919050565b82818337600083830152505050565b60005b8381101562000e1b57808201518184015260208101905062000dfe565b8381111562000e2b576000848401525b50505050565b6000600282049050600182168062000e4a57607f821691505b6020821081141562000e615762000e6062000f1a565b5b50919050565b62000e728262000f78565b810181811067ffffffffffffffff8211171562000e945762000e9362000f49565b5b80604052505050565b600062000eaa8262000de2565b91507fffffffffffffffffffffffffffffffffffffffffffffffffffffffffffffffff82141562000ee05762000edf62000eeb565b5b600182019050919050565b7f4e487b7100000000000000000000000000000000000000000000000000000000600052601160045260246000fd5b7f4e487b7100000000000000000000000000000000000000000000000000000000600052602260045260246000fd5b7f4e487b7100000000000000000000000000000000000000000000000000000000600052604160045260246000fd5b6000601f19601f8301169050919050565b7f4f6f70732120596f7520617265206e6f7420417574686f726973656420746f2060008201527f6d616b652074686973205472616e73616374696f6e0000000000000000000000602082015250565b7f596f752068617665206e6f742052656769737465726564206f7220796f75206160008201527f6c7265616479206861766520616e206163636f756e7400000000000000000000602082015250565b7f536f7272792074686973206164647265737320616c726561647920686176652060008201527f616e206163636f756e7420776974682075730000000000000000000000000000602082015250565b620010818162000da2565b81146200108d57600080fd5b50565b6200109b8162000de2565b8114620010a757600080fd5b5056fe60806040523480156200001157600080fd5b5060405162000ecf38038062000ecf8339818101604052810190620000379190620001d2565b80600090805190602001906200004f92919062000099565b5081600160006101000a81548173ffffffffffffffffffffffffffffffffffffffff021916908373ffffffffffffffffffffffffffffffffffffffff1602179055505050620003ea565b828054620000a790620002f5565b90600052602060002090601f016020900481019282620000cb576000855562000117565b82601f10620000e657805160ff191683800117855562000117565b8280016001018555821562000117579182015b8281111562000116578251825591602001919060010190620000f9565b5b5090506200012691906200012a565b5090565b5b80821115620001455760008160009055506001016200012b565b5090565b6000620001606200015a8462000255565b6200022c565b9050828152602081018484840111156200017957600080fd5b62000186848285620002bf565b509392505050565b6000815190506200019f81620003d0565b92915050565b600082601f830112620001b757600080fd5b8151620001c984826020860162000149565b91505092915050565b60008060408385031215620001e657600080fd5b6000620001f6858286016200018e565b925050602083015167ffffffffffffffff8111156200021457600080fd5b6200022285828601620001a5565b9150509250929050565b6000620002386200024b565b90506200024682826200032b565b919050565b6000604051905090565b600067ffffffffffffffff82111562000273576200027262000390565b5b6200027e82620003bf565b9050602081019050919050565b600062000298826200029f565b9050919050565b600073ffffffffffffffffffffffffffffffffffffffff82169050919050565b60005b83811015620002df578082015181840152602081019050620002c2565b83811115620002ef576000848401525b50505050565b600060028204905060018216806200030e57607f821691505b6020821081141562000325576200032462000361565b5b50919050565b6200033682620003bf565b810181811067ffffffffffffffff8211171562000358576200035762000390565b5b80604052505050565b7f4e487b7100000000000000000000000000000000000000000000000000000000600052602260045260246000fd5b7f4e487b7100000000000000000000000000000000000000000000000000000000600052604160045260246000fd5b6000601f19601f8301169050919050565b620003db816200028b565b8114620003e757600080fd5b50565b610ad580620003fa6000396000f3fe6080604052600436106100555760003560e01c806308334a261461005a5780630aa5643414610085578063155dd5ee146100ae578063c39869c1146100ca578063e2c41dbc146100f8578063f08e362f14610102575b600080fd5b34801561006657600080fd5b5061006f61011e565b60405161007c91906108b8565b60405180910390f35b34801561009157600080fd5b506100ac60048036038101906100a791906106be565b6101b6565b005b6100c860048036038101906100c391906106e7565b61028a565b005b3480156100d657600080fd5b506100df6103d1565b6040516100ef949392919061080c565b60405180910390f35b610100610529565b005b61011c60048036038101906101179190610710565b61056e565b005b6000600160009054906101000a900473ffffffffffffffffffffffffffffffffffffffff1673ffffffffffffffffffffffffffffffffffffffff163373ffffffffffffffffffffffffffffffffffffffff16146101b0576040517f08c379a00000000000000000000000000000000000000000000000000000000081526004016101a790610878565b60405180910390fd5b47905090565b600160009054906101000a900473ffffffffffffffffffffffffffffffffffffffff1673ffffffffffffffffffffffffffffffffffffffff163373ffffffffffffffffffffffffffffffffffffffff1614610246576040517f08c379a000000000000000000000000000000000000000000000000000000000815260040161023d90610878565b60405180910390fd5b80600160006101000a81548173ffffffffffffffffffffffffffffffffffffffff021916908373ffffffffffffffffffffffffffffffffffffffff16021790555050565b600160009054906101000a900473ffffffffffffffffffffffffffffffffffffffff1673ffffffffffffffffffffffffffffffffffffffff163373ffffffffffffffffffffffffffffffffffffffff161461031a576040517f08c379a000000000000000000000000000000000000000000000000000000000815260040161031190610878565b60405180910390fd5b808047101561035e576040517f08c379a000000000000000000000000000000000000000000000000000000000815260040161035590610898565b60405180910390fd5b6000600160009054906101000a900473ffffffffffffffffffffffffffffffffffffffff1690508073ffffffffffffffffffffffffffffffffffffffff166108fc849081150290604051600060405180830381858888f193505050501580156103cb573d6000803e3d6000fd5b50505050565b60606000806000600160009054906101000a900473ffffffffffffffffffffffffffffffffffffffff1673ffffffffffffffffffffffffffffffffffffffff163373ffffffffffffffffffffffffffffffffffffffff1614610468576040517f08c379a000000000000000000000000000000000000000000000000000000000815260040161045f90610878565b60405180910390fd5b6000600160009054906101000a900473ffffffffffffffffffffffffffffffffffffffff16473083805461049b9061095e565b80601f01602080910402602001604051908101604052809291908181526020018280546104c79061095e565b80156105145780601f106104e957610100808354040283529160200191610514565b820191906000526020600020905b8154815290600101906020018083116104f757829003601f168201915b50505050509350935093509350935090919293565b6000341161056c576040517f08c379a000000000000000000000000000000000000000000000000000000000815260040161056390610858565b60405180910390fd5b565b600160009054906101000a900473ffffffffffffffffffffffffffffffffffffffff1673ffffffffffffffffffffffffffffffffffffffff163373ffffffffffffffffffffffffffffffffffffffff16146105fe576040517f08c379a00000000000000000000000000000000000000000000000000000000081526004016105f590610878565b60405180910390fd5b8180471015610642576040517f08c379a000000000000000000000000000000000000000000000000000000000815260040161063990610898565b60405180910390fd5b60008290508073ffffffffffffffffffffffffffffffffffffffff166108fc859081150290604051600060405180830381858888f1935050505015801561068d573d6000803e3d6000fd5b5050505050565b6000813590506106a381610a71565b92915050565b6000813590506106b881610a88565b92915050565b6000602082840312156106d057600080fd5b60006106de84828501610694565b91505092915050565b6000602082840312156106f957600080fd5b6000610707848285016106a9565b91505092915050565b6000806040838503121561072357600080fd5b6000610731858286016106a9565b925050602061074285828601610694565b9150509250929050565b610755816108ef565b82525050565b6000610766826108d3565b61077081856108de565b935061078081856020860161092b565b610789816109bf565b840191505092915050565b60006107a1600e836108de565b91506107ac826109d0565b602082019050919050565b60006107c46035836108de565b91506107cf826109f9565b604082019050919050565b60006107e76012836108de565b91506107f282610a48565b602082019050919050565b61080681610921565b82525050565b60006080820190508181036000830152610826818761075b565b9050610835602083018661074c565b61084260408301856107fd565b61084f606083018461074c565b95945050505050565b6000602082019050818103600083015261087181610794565b9050919050565b60006020820190508181036000830152610891816107b7565b9050919050565b600060208201905081810360008301526108b1816107da565b9050919050565b60006020820190506108cd60008301846107fd565b92915050565b600081519050919050565b600082825260208201905092915050565b60006108fa82610901565b9050919050565b600073ffffffffffffffffffffffffffffffffffffffff82169050919050565b6000819050919050565b60005b8381101561094957808201518184015260208101905061092e565b83811115610958576000848401525b50505050565b6000600282049050600182168061097657607f821691505b6020821081141561098a57610989610990565b5b50919050565b7f4e487b7100000000000000000000000000000000000000000000000000000000600052602260045260246000fd5b6000601f19601f8301169050919050565b7f496e76616c69642046756e647321000000000000000000000000000000000000600082015250565b7f536f72727920796f7520617265206e6f7420417574686f726973656420746f2060008201527f6d616b652074686973207472616e73616374696f6e0000000000000000000000602082015250565b7f496e737566696369656e742046756e6473210000000000000000000000000000600082015250565b610a7a816108ef565b8114610a8557600080fd5b50565b610a9181610921565b8114610a9c57600080fd5b5056fea264697066735822122001421ea5441b030f8622898384de957b4115da794398419b14d9cc82648bac9b64736f6c63430008040033a2646970667358221220a5c32029e306119bd34bba6d1c7d130e377c1fba1564ccc6c21befbfb41f784c64736f6c63430008040033",
  "linkReferences": {},
  "deployedLinkReferences": {}
}